:020000040800F2
:1000000088070020A5010008C11E0008B9180008D3
:10001000BD1E00083D050008D51E000800000000B8
:10002000000000000000000000000000C91E0008E1
:100030004105000800000000C51E0008CD1E000894
:10004000BF010008BF010008BF010008BF01000890
:10005000BF010008BF0100080D070008BF0100082C
:10006000150700081D070008BF010008BF010008B0
:10007000BF010008BF010008BF010008BF01000860
:10008000BF010008BF010008BF010008BF01000850
:10009000BF010008BF010008BF010008BF01000840
:1000A000BF010008BF010008BF010008BF01000830
:1000B000BF010008BF010008BF010008BF01000820
:1000C000BF010008BF010008BF010008BF01000810
:1000D000BF010008BF010008BF010008BF01000800
:1000E000BF010008BF010008BF01000800F002F8CE
:1000F00000F048F80AA090E8000C82448344AAF17A
:100100000107DA4501D100F03DF8AFF2090EBAE877
:100110000F0013F0010F18BFFB1A43F0010318473B
:10012000F437000014380000103A24BF78C878C1B2
:10013000FAD8520724BF30C830C144BF04680C60ED
:10014000704700000023002400250026103A28BF35
:1001500078C1FBD8520728BF30C148BF0B60704739
:10016000642900F08F80002070471FB500F0F0F880
:1001700004000020002102F095FA401C60601FBDC1
:1001800010B510BD00F0A4F91146FFF7EEFF01F025
:10019000A3FE00F0C2F903B4FFF7F2FF03BC00F0C6
:1001A000C5F900000948804709480047FEE7FEE717
:1001B000FEE7FEE7FEE7FEE7FEE7FEE7FEE7FEE717
:1001C00004480549054A064B70470000D11E000847
:1001D000ED00000888010020880700208803002027
:1001E0008803002010B500F0B3F8001D10BD00BF5B
:1001F000B52400000FB41CB5074B06AA7B44694622
:100200000090059800F007F90020694600F016F903
:100210001CBC5DF814FB00003D0200002DE9F0411C
:100220000E460446002020622046E168884730B32D
:10023000252805D0D4E901219047206A401CF2E727
:10024000E168204600278847050018D0A5F1410045
:10025000192802D820354FF4006732462946204637
:100260002760FFF77DFF40B1012804D0F61D26F07E
:1002700007060836D8E7361DD6E72846DAE7206AAB
:10028000BDE8F0812DE9F04106460024106875298B
:10029000314616A510D0AFF30080002802DA4042A4
:1002A00013A507E031688A0701D512A502E04907C6
:1002B00004D511A5012401E0AFF3008000210A223A
:1002C00006F1240709E0B0FBF2FCB0FBF2F302FBFD
:1002D0001C00303078541846491C0028F3D12346BE
:1002E0002A463046BDE8F04100F036B80000000074
:1002F0002D0000002B000000200000004FF0000245
:1003000000B5134694469646203922BFA0E80C500B
:10031000A0E80C50B1F12001BFF4F7AF090728BFE6
:10032000A0E80C5048BF0CC05DF804EB890028BF62
:1003300040F8042B08BF704748BF20F8022B11F08B
:10034000804F18BF00F8012B704770477047704707
:1003500000487047500000202DE9F0470D469946AF
:100360009246044600F124080168880604D5E06935
:1003700021F01001216000E00120A84201DD471BAF
:1003800000E00027A1697A1902EB0900081AA061B0
:100390002078C00602D42046AFF30080002608E093
:1003A000D4E901211AF806009047206A401C761C07
:1003B00020624E45F4DB2078C0060AD52046AFF314
:1003C000008006E0D4E9012130209047206A401CDB
:1003D0002062381EA7F10107F4DC07E0D4E901210F
:1003E00018F805009047206A401C2062281EA5F1DD
:1003F0000105F3DC2046AFF300802078000602D52B
:100400000220BDE8F0870120FBE7000001694A1CDB
:1004100002610878704700B58FB0CDE90131002145
:10042000059105497944CDE9031011466846FFF767
:10043000F5FE0FB000BD0000E5FFFFFF0A6802F8FF
:10044000010B0A6070470000004870473000002030
:100450004FF0013C50F8042B51F8043B9A4221D153
:10046000A2EB0C03934313EACC1317D150F8042BDF
:1004700051F8043B9A4215D1A2EB0C03934313EAC3
:10048000CC130BD150F8042B51F8043B9A4209D1FC
:10049000A2EB0C03934313EACC13DBD04FF0000024
:1004A000704700BFD01A01BAB1FA81F101F018010A
:1004B00022FA01F0CB40DBB2C0B2C01AC1F1200178
:1004C0002CFA01F3D11A914311EAC311E6D1704716
:1004D0007546FFF7B9FFAE4605006946534620F062
:1004E0000700854618B020B5FFF76AFEBDE820403A
:1004F0004FF000064FF000074FF000084FF0000BE0
:10050000AC46ACE8C009ACE8C009ACE8C009ACE84E
:10051000C00921F007018D46704710B50446AFF3BE
:1005200000802046BDE81040FFF735BE0149182085
:10053000ABBEFEE72600020070470000FEE70000A9
:100540007047000010B586B040F2F4040020C2F2FB
:1005500000044FF6FF730590CDE90300CDE90000DC
:100560004FF080410722C4E902032061A0612046C8
:10057000C4E9001200F0DCFE4FF48050029002A9A2
:10058000204600F097FF6946204600F093FE204683
:1005900000F05CFF06B010BD80B500284DD040F2E1
:1005A000F401C2F200010968421E2431032A00F05E
:1005B000030C43D2BCF1000F3FD00020086000BF05
:1005C0000868C0087C280BD80868C0087C2807D8B1
:1005D0000868C0087C2803D80868B0F57A7FEFD394
:1005E000BCF1010F29D00020086000BF0868C008D6
:1005F0007C280BD80868C0087C2807D80868C00881
:100600007C2803D80868B0F57A7FEFD3BCF1020FDD
:1006100013D00020086008E00868C0087C2888BF64
:1006200080BD0868B0F57A7F07D20868C0087C28CA
:1006300003D80868C0087C28EED980BD20F0030EDE
:100640000023002203E000BF04327245B2D00B60E9
:100650000868C0087C280BD80868C0087C2807D820
:100660000868C0087C2803D80868B0F57A7FEFD303
:100670000B6000BF0868C0087C280BD80868C00859
:100680007C2807D80868C0087C2803D80868B0F51B
:100690007A7FEFD30B6000BF0868C0087C280BD8B6
:1006A0000868C0087C2807D80868C0087C2803D8D8
:1006B0000868B0F57A7FEFD30B6000BF0868C00808
:1006C0007C28C1D80868C0087C28BDD80868C00844
:1006D0007C28B9D80868B0F57A7FEFD3B4E700007A
:1006E00040F2F401C2F20001096800224A6206E009
:1006F0004A6A824228BF70474A6A824205D24A6AE1
:10070000824202D24A6A8242F2D37047012000F04C
:100710001DB90000042000F019B90000082000F005
:1007200015B900002DE9F04F83B0044600F034FA0B
:1007300040F29006C2F200063168411AB1F5FA7F24
:1007400062D340F20008082CC2F20008306007D0E3
:10075000042C0DD0012C32D17068013070602EE075
:10076000D8F8040080F00040C8E9010027E000BF8D
:10077000D8E900540021204602F096FD08F10C074C
:1007800060B907EB850050F8040C214602F070FDBB
:1007900000283DD0D7F800900FE000BF07EB8500A0
:1007A00050F8040C24F0004B594602F061FD00287B
:1007B00062D0D7F8009089F00049C8E901997068C3
:1007C00000EBD07121F00101401A012802D048B994
:1007D00058A400E053A40020012101F005F92046AF
:1007E00001F042FAD8F8040002F06EFE0DF10704A1
:1007F000024654A12046FFF7FDFC0C20012101F028
:10080000F3F8204601F030FA03B0BDE8F08F00BFE6
:10081000012D61DB40F20009C5F1000A4FF0040B25
:10082000CBF680793868214602F022FD00285FD19E
:100830000AEB0B05032DC0D07868214602F018FDA5
:1008400000285BD1022DB8D0B868214602F010FD17
:10085000002857D1012DB0D0F868214602F008FDDC
:10086000002851D10BF1040B0AEB0B00042807F10F
:100870001007D7D1A1E700BF012D33DB40F20009FB
:10088000C5F1000A0425CBF680793868594602F094
:10089000EFFC88BB0AEB0504032C3FF48CAF7868AF
:1008A000594602F0E5FCA8BB022C3FF484AFB868BF
:1008B000594602F0DDFC78BB012C3FF47CAFF868B0
:1008C000594602F0D5FC40BB04350AEB050004286C
:1008D00007F11007D9D16EE740F20009CBF6807915
:1008E0006BE700BF40F20009CBF6807963E700BFF9
:1008F000ABF1030B08E000BF033D0EE0ABF1020BD0
:1009000002E000BFABF1010B08EB8B0000F10C071C
:1009100040E700BF023D00E0013D08EB850000F12B
:100920000C0746E752554E202D20414E474C453A84
:10093000000000002053544F502D414E474C453A83
:1009400000000000256420202000000040F2144137
:10095000C4F201010A68024214BF08607047FFF741
:10096000E1BE00002DE9F04F82B00E68002E00F0CD
:10097000038141F20042C4F20102042340F2004E1E
:10098000904208BF03234FF6FF7CC4F2010E009390
:1009900000240123C1F2100C4FF0000A4FF00009AF
:1009A00049E000BF012704F00C030F229A402BEA14
:1009B000020207FA03F34FEA9A051A4346F8252084
:1009C000D1F804B040F20C455FEACB22DEF80820F3
:1009D00054BF22EA080242EA0802C4F20105CEF836
:1009E00008202A685FEA8B2354BF22EA080242EA01
:1009F00008022A605FEA8B33DEF8042054BF22EA43
:100A0000080242EA08025FEACB33CEF80420DEF89F
:100A100000204FF0010354BF22EA080242EA080214
:100A2000CEF800200E680AF1010A36FA0AF204F143
:100A3000040400F0A18003FA0AF816EA080FF1D0C6
:100A40004E68664512DC122E56D8DFE806F0350BEC
:100A50004549555555555555555555555555554D6A
:100A6000510000BFD1F80C9046E000BF4FF6FF7276
:100A7000C1F2210296420FDC0022C1F2110296421D
:100A80001AD00022C1F21202964215D00022C1F201
:100A90002102964210D02FE00022C1F2220296429B
:100AA0000AD00022C1F23102964205D00022C1F2E2
:100AB0003202964220D100BF8A684AB1012A14BF8F
:100AC000C0F81480C0F810804FF0080914E000BF8F
:100AD0004FF0040910E000BFCA6802F108090BE0FA
:100AE0004FF0000908E000BFCA6802F1040903E002
:100AF000CA6802F10C0900BF22460646BAF1080F87
:100B000024BF203A043637680F25954027EA0505AB
:100B100009FA02F22A433260CA79D2067FF582AF1F
:100B200041F21803C4F202031A68AEF57E7642F071
:100B300001021A601A6802F001020192019A2AF079
:100B4000030256F802B040F60002C4F201029042DD
:100B500010D040F60042C4F2010290423FF422AFAE
:100B600041F20002C4F20102009F904208BF022736
:100B700019E700BF002716E702B0BDE8F08F0000BC
:100B80008068084018BF012070470000002A08BF95
:100B9000090401617047000040F28410C2F20000B5
:100BA0000068704740F2240040F28411C2F2000055
:100BB000C2F2000100780A68104408607047000023
:100BC00080B542F20000C4F20200016841F0100159
:100BD0000160032000F08EF80F2000F005F800F00F
:100BE00027F8002080BD000070B540F22406C2F254
:100BF000000640F22C013278C2F200014FF47A7301
:100C00000968B3FBF2F20446B1FBF2F1084600F0CA
:100C10003BFB0F2C4FF0010508D838B94FF0FF30DF
:100C200021460022002500F039F87460284670BD86
:100C300082B041F21800C4F202000168022241F0C1
:100C400001010160016801F0010101910199416810
:100C500041F080514160406800F080500090009861
:100C60000420C4F20100016862F31A61016002B05D
:100C700070470000002848BF7047C1B200F01F0055
:100C8000012202FA00F04EF20012CEF2000242EA15
:100C9000D10121F0030108607047000010B54EF645
:100CA0000C5CCEF2000CDCF80030C3F3022E8EF0A8
:100CB0000704042C28BF0424BEF103034FF0FF3EB9
:100CC0000EFA04F438BF0023A14399400EFA03F34F
:100CD0009A43114300F00F0200F160430901043A06
:100CE00003F564436244002848BF02F10C03197005
:100CF00010BD00004EF60C51CEF200010A684FF60E
:100D0000FF031A4060F30A2242F0806040F0FD7059
:100D1000086070472DE9F04381B0002800F085801D
:100D200042F20008C4F202080446D8F800000D465A
:100D300000F0070088420CD2D8F8000020F007002D
:100D40002843C8F80000D8F8000000F00700A842C7
:100D50006BD1206841F204098107C4F2020917D55A
:100D6000410705D5D9F8001041F4E061C9F8001039
:100D7000010705D5D9F8001041F46051C9F80010F9
:100D8000D9F80010A26821F0F0011143C9F8001051
:100D9000C00741D1D8F8000000F00700A8420CD9E4
:100DA000D8F8000020F007002843C8F80000D8F861
:100DB000000000F00700A84237D12068410707D59E
:100DC000D9F80010E26821F4E0611143C9F800107D
:100DD000000708D5D9F80000216920F4605040EAE6
:100DE000C100C9F80000D9F8002002F00C00082862
:100DF00041F20020C0F27A0050D143F6F403C2F36E
:100E00008341C0F60003595CD2033BD440F6001086
:100E1000C0F23D00484341E0606802280AD0012842
:100E20002AD159F8041C890308D4012001B0BDE877
:100E3000F08300BF59F8041C8901F6D5D9F80010D9
:100E400021F003010843C9F80000FFF7A5FE06469C
:100E500041F28837D9F80000616800F00C00B0EB6F
:100E6000810F97D0FFF798FE801BB842F2D903207C
:100E700001B0BDE8F08300BF59F8041C8907D4D540
:100E8000DCE700BFD9F8002043F6F203C2F340428A
:100E9000C0F600039A5C4843B0FBF2F0D9F80010AA
:100EA00043F6E202C1F30311C0F60002515C40F2C6
:100EB0002C0220FA01F140F22800C2F20000006882
:100EC000C2F200021160FFF78FFE002001B0BDE802
:100ED000F08300002DE9F04182B0002868D004467C
:100EE000007841F20006C007C4F2020625D07068FF
:100EF00000F00C0004281BD0706800F00C000828DB
:100F000002D17068C00313D46068002800F06881C3
:100F1000B0F5A02F00F07C81B0F5803F00F07C811F
:100F2000306820F480303060306820F4802076E132
:100F30003068800301D56068D0B32078800718D569
:100F4000706810F00C0F07D0706800F00C000828D3
:100F50006ED17068C0036BD43068800702D52069F9
:100F6000012825D13068616920F0F80040EAC1000D
:100F70003060207800071FD42078400732D4E5691C
:100F800095B1706800F00C00082840F08F80012DAA
:100F90000ED07068216A00F480328A4208D1616AFA
:100FA00000F47010884203D1002002B0BDE8F08147
:100FB000012002B0BDE8F081A069002862D00020C5
:100FC000C4F242200121C0F88014FFF7E5FD054678
:100FD000706A800700F18C80FFF7DEFD401B02285D
:100FE000F6D92AE1F06910F0805808D1F06940F094
:100FF0008050F061F06900F080500090009847F256
:101000000007C4F200073868C00529D4386840F4E6
:1010100080703860FFF7C0FD054600BF3868C00526
:101020001ED4FFF7B9FD401B6428F7D905E100BFC6
:101030002069002840F20000C4F2422000F08280C3
:1010400001210160FFF7A8FD054600BF3068800759
:101050003FF588AFFFF7A0FD401B0228F6D9ECE072
:10106000E068002800F08080052800F097800128C3
:1010700000F09880306A20F001003062306A20F081
:10108000040092E00020C4F242200021C0F8801445
:10109000FFF782FD054600BF706A80077FF56CAFE1
:1010A000FFF77AFD401B0228F6D9C6E00027C4F2FC
:1010B000422700203866FFF76FFD022D05460BD151
:1010C0003068800140F1BE80FFF766FD401B0228BA
:1010D0004FF00300F4D968E7306880017FF564AF12
:1010E000FFF75AFD401B02284FF00300F4D95CE7DC
:1010F00040F22C00C2F20000006844F6D351C1F265
:101100006201A0FB0101480A019000BF00BF0198E5
:10111000411E002801913FF42FAF00BF0198411EEE
:10112000002801913FF428AF00BF0198411E00281C
:1011300001913FF421AF00BF0198411E00280191A9
:10114000E4D119E700210160FFF726FD054600BF45
:10115000306880077FF50DAFFFF71EFD401B0228AA
:101160004FF00300F4D920E7306A20F0010030622C
:10117000306A20F004003062FFF70EFD054641F2B0
:10118000883700BF306A800720D5FFF705FD401B78
:10119000B8424FF00300F5D907E700BF306A40F0CE
:1011A00004003062306A40F001003062FFF7F4FC66
:1011B000054641F2883700BF306A800706D4FFF742
:1011C000EBFC401BB842F7D937E000BFB8F1000F85
:1011D0007FF4D5AEF06920F08050F061CFE600BF1B
:1011E000306820F480303060306820F48020306037
:1011F000FFF7D2FC054600BF306880037FF59DAE47
:10120000FFF7CAFC401B64284FF00300F4D9CCE67A
:10121000306840F480203060306840F480303060C6
:10122000FFF7BAFC054600BF306880033FF585AE86
:10123000FFF7B2FC401B6428F6D9032002B0BDE8DA
:10124000F08100BF206AB0F5803F05D17168A268C7
:1012500021F40031114371607168626A21F47411E4
:1012600011430843706001203866FFF795FC04467F
:10127000306880013FF598AEFFF78EFC001B022816
:101280004FF00300F4D990E6411E0020B0EB116F3F
:101290001CBF012070474EF21002CEF200025160D6
:1012A0004EF62351CEF20001F0230B70072190601F
:1012B0001160704710B590F83C20012A4FF00202EF
:1012C00033D080F83D200268D2F804E0D2F808C09C
:1012D0000C682EF07003234340F2FF74C4F2000444
:1012E000A24253600ADCB2F1804F13D040F20043B7
:1012F000C4F200039A420DD011E000BF42F6004351
:10130000C4F201039A4205D040F60003C4F2000380
:101310009A4204D149682CF080031943916001215D
:10132000002280F83D1080F83C20104610BD0000DF
:10133000002804BF0120704710B5044690F83D0016
:1013400028B9002084F83C00204600F067F802200D
:1013500084F83D00206840F2FF730268C4F2000385
:1013600042F6004C9842C4F2010C15DCB0F1804FFB
:101370001AD040F20041C4F20001884214D09842D1
:1013800018DCB0F1804F1DD040F20041C4F20001E2
:10139000884217D01AE000BF604505D040F6000132
:1013A000C4F200018842EAD1A16822F070020A4327
:1013B0009842E6DD604505D040F60001C4F2000128
:1013C000884203D1216922F440720A43A36922F0C2
:1013D0008001D4F804E0E268194360450160C2620C
:1013E000C0F828E002D16169CCF8301001214161D8
:1013F000002084F8461084F83E1084F83F1084F8EA
:10140000401084F8411084F8421084F8431084F8A6
:10141000441084F8451084F83D1010BD81B0006878
:10142000B0F1804F02D001B0704700BF41F21C0004
:10143000C4F20200016841F001010160006800F09F
:1014400001000090009801B07047000090F83D1036
:1014500001291CBF01207047022180F83D1000685F
:1014600040F2FF71C4F20001884209DCB0F1804F04
:1014700012D040F20041C4F2000188420CD012E0C8
:1014800042F60041C4F20101884205D040F6000155
:10149000C4F20001884206D1816801F007010629E3
:1014A00004BF00207047016841F001010160002085
:1014B0007047000080B590F83C20012A4FF00202EE
:1014C00000F0C28080F83D20D0F800C04FF677725F
:1014D000DCF8083023EA0202CCF808200B684F2B16
:1014E00028DC1F2B44DD202B45D0302B43D0402B54
:1014F00040F0AC80D1F804E0C968DCF82030DCF8BA
:10150000202022F00102CCF82020DCF8182022F064
:10151000F00242EA011123F00A0242EA0E02CCF87C
:101520001810CCF82020DCF8081041F0470121F019
:10153000300180E06F2B27DDB3F5005F48D0B3F5B5
:10154000805F7AD0702B40F08180D1E901E3C968D7
:10155000DCF8082043EA0E0322F47F4243EA01212B
:101560001143CCF80810DCF8081041F0770162E074
:101570000BB1102B6AD1DCF8081021F0700119436F
:1015800041F0070157E000BF502B35D0602B5DD1F3
:10159000D1F804E0C968DCF82030DCF8202022F023
:1015A0001002CCF82020DCF8182022F4704242EA25
:1015B000013123F0A00242EA0E12CCF81810CCF848
:1015C0002020DCF8081041F0670121F0100132E022
:1015D000D1E901E3C968DCF8082043EA0E0322F4EC
:1015E0007F4243EA01211143CCF80810DCF80810CF
:1015F00041F480411FE000BFD1F804E0C968DCF885
:101600002030DCF8202022F00102CCF82020DCF889
:10161000182022F0F00242EA011123F00A0242EA05
:101620000E02CCF81810CCF82020DCF8081041F09D
:10163000570121F02001CCF808100022012180F888
:101640003D10002180F83C10104680BD0122F5E7D6
:10165000002804BF012070472DE9F04F81B00446F7
:1016600090F83D000D4628B9002084F83C00204643
:1016700000F094F8022084F83D00206844F207024C
:10168000816840F2FF73914381600268C4F20003F5
:1016900042F6004C9842C4F2010C15DCB0F1804FC8
:1016A0001AD040F20041C4F20001884214D098429E
:1016B00018DCB0F1804F1DD040F20041C4F20001AF
:1016C000884217D01AE000BF604505D040F60001FF
:1016D000C4F200018842EAD1A16822F070020A43F4
:1016E0009842E6DD604505D040F60001C4F20001F5
:1016F000884203D1216922F440720A43A36922F08F
:101700008001D4F804E0E268194360450160C262D8
:10171000C0F828E002D16169CCF830104FF001091F
:10172000C0F814908268D0F818E0D0F820C0D5E94D
:101730000038D5E9027B43EA020AAB694FF6FF7134
:101740002EEA010E47EA03234FF6FC47BB43D5E9D7
:1017500007724BEA0E012E69194341EA072141EA5B
:10176000061141EA02312CF022026B6942EA0802BA
:1017700042EA0312C0F808A08161026284F8469030
:1017800084F83E9084F83F9084F8429084F8439027
:1017900084F83D90002001B0BDE8F08F80B586B0A0
:1017A00040F600010268C4F2000100208A42059060
:1017B00002D006B080BD00BF41F21802C4F202029E
:1017C000536843F004035360536803F00403019328
:1017D000019B136843F008031360126802F00802CB
:1017E0000192019AC022CDE90220049001F58230D5
:1017F00002A9FFF7B7F806B080BD000080B590F8E9
:101800003E2090F83F3090F842E090F843C0042921
:101810000AD0B9B9012A4FF0010208BFBEF1010F89
:1018200034D0104680BD00BF012B4FF0010208BF2D
:10183000BCF1010FF5D1022180F83F1080F8431070
:1018400000681EE0012A4FF0010208BF012BE8D119
:10185000BEF1010FE5D1BCF1010FE2D1022280F807
:101860003E2080F83F2080F8422080F8432091B14C
:101870000068016A21F001010162016A41F0010181
:10188000016210216FF0100209E000BF022180F810
:101890003E1080F84210006801216FF00102036AD7
:1018A0001A400262026A114301620168002241F09B
:1018B00001010160104680BDFEE70000F0B581B077
:1018C00040F60044C4F2010420464FF48061012236
:1018D000FFF75CF920464FF4007100220026FFF765
:1018E00055F90120FEF7FCFE40F2E405C2F20005C6
:1018F0004FF400400327C5E9000620462946C5E904
:101900000267FFF72FF84FF48040C5E90006204634
:101910002946C5E90267FFF725F84FF40050C5E9ED
:10192000000620462946C5E90267FFF71BF84FF479
:101930008050C5E9000620462946C5E90267FFF741
:1019400011F820464FF400610122FFF71FF9012032
:10195000FEF7C6FE20464FF40041FFF711F9054699
:10196000002820464FF4804118BF0125FFF708F9F1
:1019700020464FF40051FFF703F920464FF4805101
:10198000FFF7FEF820464FF400610022FFF7FEF853
:101990000120FEF7A5FE20464FF400610122FFF76B
:1019A000F5F80120FEF79CFE20464FF40041FFF7BA
:1019B000E7F820464FF48041FFF7E2F820464FF465
:1019C0000051FFF7DDF820464FF48051FFF7D8F8BB
:1019D00020464FF400610022FFF7D8F80120FEF7FF
:1019E0007FFEE80101B0F0BDB0B50D46044600BF72
:1019F000FFF764FF0028FBD1002D18BF403444F0EE
:101A00008000C0B20021BDE8B04000F03BB900004A
:101A10002DE9F04F81B00F20FEF7BEFD41F2180016
:101A2000C4F20200016840F6004441F00801016080
:101A30000168C4F2010401F00801009100990168F5
:101A4000002241F00801016001684FF4007901F0C3
:101A500008010091009901684FF0000A41F0080167
:101A60000160016801F0080100910099016841F0EE
:101A700008010160016801F0080100910099016806
:101A800041F008010160016801F00801009100992E
:101A9000016841F008010160016801F0080100914E
:101AA0000099016841F00801016000684FF400717D
:101AB00000F00800009000982046FFF767F82046E5
:101AC0004FF4806100224FF48068FFF75FF82046F2
:101AD0004FF4006100224FF4006BFFF757F82046E7
:101AE0004FF480510022FFF751F820464FF4005187
:101AF0000022FFF74BF820464FF480410022FFF709
:101B000045F820464FF400410022FFF73FF840F22D
:101B1000E405C2F200050126032720462946C5E94F
:101B20000096C5E902A7FEF71DFF20462946C5E934
:101B30000086C5E902A7FEF715FF20462946C5E93C
:101B400000B6C5E902A7FEF70DFF4FF4805085E807
:101B5000410420462946EF60FEF704FF4FF4005091
:101B600085E8410420462946EF60FEF7FBFE4FF46E
:101B7000804085E8410420462946EF60FEF7F2FEEA
:101B80004FF4004085E8410420462946EF60FEF707
:101B9000E9FE302000F020F90520FEF7FDFC3020A2
:101BA00000F01AF96420FEF79BFD302000F014F9D4
:101BB000202000F011F900BFFFF780FE0028FBD1C4
:101BC0002820002100F05EF8FFF778FE0028FBD106
:101BD0000820002100F056F8FFF770FE0028FBD126
:101BE0000120002100F04EF8FFF768FE0028FBD12D
:101BF0000620002100F046F8FFF760FE0028FBD128
:101C00000E20002101B0BDE8F04F00F03BB800000D
:101C100010B50C280CD004460A2813D1FFF74EFE4D
:101C20000028FBD1C0200021BDE8104000F02AB8F8
:101C3000FFF744FE0028FBD100200121BDE8104041
:101C400000F020B8FEF7CEFA0068005D10F03E0FFD
:101C500008BF10BDFFF732FE0028FBD1204601214E
:101C6000BDE8104000F00EB810B50178002908BF9B
:101C700010BD441EC8B2FFF7CBFFA1780134002984
:101C8000F8D110BD2DE9F04381B040F60044C4F214
:101C900001040E46054620464FF4806100224FF0B5
:101CA0000008FEF773FF002E18BF012620464FF4F0
:101CB00000713246FEF76AFF01204FF00109FEF77E
:101CC0000FFD40F2E406C2F200064FF40040032785
:101CD000C6E9000920463146C6E90287FEF742FE02
:101CE0004FF48040C6E9000920463146C6E9028724
:101CF000FEF738FE4FF40050C6E900092046314691
:101D0000C6E90287FEF72EFE4FF48050C6E90009AF
:101D100020463146C6E90287FEF724FE20464FF4EE
:101D200000610122FEF732FFEA0920464FF400412C
:101D3000FEF72CFFC5F3801220464FF48041FEF7DA
:101D400025FFC5F3401220464FF40051FEF71EFF59
:101D5000C5F3001220464FF48051FEF717FF012013
:101D6000FEF7BEFC20464FF400610022FEF70EFF96
:101D70000120FEF7B5FC20464FF400610122FEF77A
:101D800005FFC5F3C00220464FF40041FEF7FEFEFA
:101D9000C5F3800220464FF48041FEF7F7FEC5F3FD
:101DA000400220464FF40051FEF7F0FE05F001021C
:101DB00020464FF48051FEF7E9FE0120FEF790FC2B
:101DC00020464FF400610022FEF7E0FE012001B042
:101DD000BDE8F043FEF784BC2DE9F04381B040F646
:101DE0000044C4F20104804620464FF48061002282
:101DF0004FF00009FEF7CAFE20464FF400710022A2
:101E0000FEF7C4FE01200125FEF76AFC40F2E4065D
:101E1000C2F200064FF40040032786E82102204664
:101E20003146F760FEF79EFD4FF4804086E82102C0
:101E300020463146F760FEF795FD4FF4005086E8E6
:101E4000210220463146F760FEF78CFD4FF48050AA
:101E500086E8210220463146F760FEF783FD2046E2
:101E60004FF400610122FEF791FE20464FF400413D
:101E70000022FEF78BFE20464FF480410022FEF741
:101E800085FE20464FF400510122FEF77FFEC8F385
:101E9000001220464FF48051FEF778FE0120FEF735
:101EA0001FFC20464FF400610022FEF76FFE012068
:101EB00001B0BDE8F043FEF713BC0000FEE70000F0
:101EC000FEE700007047000070470000FEF76ABEA2
:101ED00070470000FEE7000090B0FEF771FE06AC10
:101EE000201D2421FEF70AFA0220069001200A9004
:101EF00010200B90002520460D95FEF7EBFF28B132
:101F0000EFF3108072B600BFFEE700BF0F20CDE9EF
:101F1000000568460021CDE902550495FEF7FAFE5A
:101F200020B1EFF3108072B6FEE700BF4FF000085B
:101F300041F21800CDF82480C4F20200016840F696
:101F40000C0641F0200101600168C4F2010601F0B5
:101F50002001009100990168A6F10C0441F00401F0
:101F600001600168002201F00401009100990168FC
:101F700040F6027941F008010160006840F6027104
:101F800000F00800009000982046FEF7FFFD06F5DF
:101F90007D7528464FF47E410022FEF7F7FD0D20A7
:101FA00006900020C1F221000DF1180B07904FF0B0
:101FB000010A20465946CDF820A0FEF7D3FC02279F
:101FC00020465946CDE9069ACDF820800997FEF7BC
:101FD000C9FC4FF47E40CDE9060A28465946CDE9B2
:101FE0000887FEF7BFFC1020CDE906070320099003
:101FF00028465946FEF7B6FC0420C4F201000168E9
:10200000002241F0E06141F0010101600620002161
:10201000FEF744FE0620FEF72DFE082000210022D8
:10202000FEF73CFE0820FEF725FE092000210022D5
:10203000FEF734FE0920FEF71DFE40F23C10C2F20E
:1020400000004FF080414FF6FE73CDF82480CDE9BB
:102050000788CDE90088072280E80601C0E9033837
:10206000C0F81880FFF764F920B1EFF3108072B662
:10207000FEE700BF4FF48050069040F23C10C2F2E1
:10208000000006A9FFF716FA20B1EFF3108072B630
:10209000FEE700BF40F23C10C2F200006946FFF7C5
:1020A00009F928B1EFF3108072B600BFFEE700BF58
:1020B00040F2900AC2F2000A40F60002C4F20002A6
:1020C0005046002140F8082F4FF6FF72C0E9032167
:1020D0000322CDE906210122CDE90011C0E9011159
:1020E0008161CDE90821CDE90A11CDE90C210E91DC
:1020F00006A9FFF7ADFA28B1EFF3108072B600BF62
:10210000FEE700BF0AF1080569462846FFF7D2F846
:1021100020B1EFF3108072B6FEE700BF284604211D
:10212000FFF76CFBFEF70EFAFFF772FC46A0FFF715
:102130009BFD00200121FFF757FC48A0FFF794FD0D
:1021400040F2000B43F60418C2F2000BC0F6000880
:1021500005E000BF204602210022FEF717FDDAF855
:10216000040000EBD07121F00101401AF2D00128E7
:10217000F5D1204602210122FEF708FDDBF80850C8
:102180000021284601F074F830B100F071F84FF4E6
:102190007A70FEF701FAE2E700212846C3F6A07143
:1021A00001F09CF8074620F0004000F0A9FF4CF633
:1021B000CC434FF04042C3F6FC7300F06FFB00F0DD
:1021C000EDF900F001FD05464FEA400938460021CF
:1021D00001F071F800B33846002101F05EF80028E4
:1021E000D3D1002DD1D429EAE970C5434FF0FF3790
:1021F0003068013720F47060306007F0070038F86D
:1022000010003168084330604FF44870FEF768FAF8
:10221000E8190130ECD1B8E7002DB6D4306820F4CD
:102220007060306009F0070038F81000316808432A
:1022300030604FF44870FEF753FAB9F1000FA9F17E
:102240000109EBDCA1E700BF204155544F20545554
:10225000524E5441424C4520000000002053544F40
:1022600050202D20414E474C453A302000000000C0
:102270002DE9F04F03AF8FB040F62400C4F2000008
:10228000006848F6AD31C6F6DB0180FB0112111380
:1022900001EBD27142F2107201FB120001F030F931
:1022A00047F2BC41C3F6135101F0AAF900F0C0F99E
:1022B00001F00AF940F2000AC2F2000A40F2E00915
:1022C000DAF80440C2F200090546C9F800002046C9
:1022D00001F0FAF895FBF0F101FB105060B324F027
:1022E000004000F00DFF0B4648F200010246C4F228
:1022F0007601002000F0D2FA00F066FC0B2101EB21
:10230000800121F00701ADEB01016A4647F8341C5A
:102310008D46DAF80450002825F0004B47F8382C99
:102320000ED4411C032801F0030847F83C5C47F831
:102330002C0C09D2002433E0CAF8084008E100BFA1
:10234000D9F80060C4E000BF57F8340C21F0030551
:10235000A0F11006002400BF204601F0D1F801468C
:10236000584601F04DF946F8100F601C01F0C8F80E
:102370000146584601F044F97060A01C01F0C0F815
:102380000146584601F03CF9B060E01C01F0B8F895
:102390000146584601F034F90434AC42F060DBD118
:1023A00057F8345CB8F1000F26D0204601F0A8F8A9
:1023B0000146584601F024F9B8F1010F45F8240010
:1023C0001AD0661C304601F09BF80146584601F0D1
:1023D00017F957F8341C57F8345CB8F1020F41F87C
:1023E000260009D00234204601F08AF801465846FA
:1023F00001F006F945F82400D9F80060304601F0F4
:102400007FF857F82C4C2968012C47F8300C5DDB1D
:10241000084657F8301C47E9116B01F0EDF920F040
:10242000004001F051F88146043D4FF000080021C2
:1024300047F8241CA86857F8301C08F1010801F07F
:10244000DBF920F00044204600F05AFE47F81C0C4F
:1024500048460E4647F8201C00F0E5FB8346204620
:102460008A4601F031F857F81C4C47F8280C2046F2
:1024700031465A46534600F0F4FE002857F8280C1F
:1024800018BF814657F82C1C20460C4657F8201CD4
:102490005A46534600F0E5FE57F8241C002818BFA2
:1024A0004146444505F10405C2D157F8340C40F2C9
:1024B000E00950F8211040F2000A57F83C5C57E957
:1024C000116BC2F20009C2F2000A01E057F83C5C4D
:1024D000084600F0F9FF04462846002100F0E4FE1B
:1024E00050B9A6421ADAA01B01F00AF801462846A4
:1024F00000F032FE27E000BF584600F001FE8046A3
:10250000A6420D4612DDA01B00F08DFB42462B4675
:1025100000F008FD00F0DCF815E000BF301B00F013
:10252000EFFF0146284601F067F90CE0301B00F090
:102530007AFB02460B464046294600F0FBF800F0C5
:10254000C7F880F0004057F8381CCAF808008D46DC
:1025500000200021FFF748FA0BA0FFF785FB0B20B6
:102560000021FFF741FAD9F80020A7F1160409A1CC
:102570002046FDF73FFE2046FFF776FBA7F10C044F
:10258000A546BDE8F08F00BF20504F534954494F36
:102590004E3A200025642020202000002DE9F04D37
:1025A00007460E4600F058FC04460D463A463346B0
:1025B00000F0ACFCDFF86CA0DFF86CB01B4B0746FA
:1025C000884616F0004F4FF000020AD000F07EFB64
:1025D0000AD900225B463846414600F007FC1BD270
:1025E00012E000F073FB08D2002253462046294631
:1025F00000F098FC04460D460EE000225B4638468B
:10260000414600F0F3FB07D80022534620462946F6
:1026100000F090F804460D463146204665F31E0151
:10262000BDE8F08D0000F03F0000E03F0000E0BF9B
:1026300070B5054601F0B0F804460146284601F0A1
:10264000DBF815F0004F4FF07F410ED0B0F13F4F57
:1026500028BFB1EB400F0ED2B0F17C5F1DDDB1EBB6
:10266000400F1AD313E0044617E0B0F13F4F08D9EA
:10267000B1EB400F05D34FF07E51204601F0BCF87E
:10268000F1E7B0F17C5F08DBB1EB400F05D34FF011
:102690007E51204600F060FDE5E7284664F31E0009
:1026A00070BD000010B500290AD00878002807D0B6
:1026B00005487844FDF7CCFE002801D0002010BD6D
:1026C0000248784410BD0000821200007A12000017
:1026D00021F0004201F00043A2F16052B2F5801FE8
:1026E00028BFD2F17F6C0BD95FEA001C43EAC2021B
:1026F00042EB507018BF704728BF20F001007047B0
:10270000B2F5801FBCBF184670474FEA410C1CF55C
:10271000001F02D2084601F03AB870B500F012FB73
:1027200000000089FFF7F6BF4FF00040A0F58000E1
:102730007047000010B591EA030F48BF83F00043D3
:1027400000F1F883841A71EB030C05D2121943EBE4
:102750000C03001B61EB0C014FEA1154A4EB135C5A
:10276000DFF81CE11EEA430F18BF9EEA445F00F049
:10277000748021EA045123EA0E0343F48013DCF150
:10278000200E32D322FA0CFE10EB0E0023FA0CFEC0
:1027900041EB0E01CCF1200E03FA0EFE10EB0E0001
:1027A000CCF1200E51F10001B1F5801F32D201EBC6
:1027B000045112FA0EF2BDE8104058BF7047401C99
:1027C00038BF5FEA420218BF7047002814BF20F0EC
:1027D000010041F100014FEA410313F5001F38BF2A
:1027E0007047A1F1C04100F0FBBA012A43EB03029C
:1027F000ACF1200CDCF11F0E32BF4FF0000E23FABB
:102800000CF310EB030041EB0451B4EB115FD0D09B
:10281000A1EB045101F58011490801EB04515FEA75
:1028200030000ED350F1000038BF12FA0EFE08D16E
:10283000BDE81040C9E7401C38BF5FEA4202CAD178
:10284000C3E7BDE810404FEA410313F5001F38BF4E
:102850007047A1F1C04100F0C3BA9EEA445F08D0BE
:1028600011EA5E0FBDE8104004BF01F000410020F6
:102870007047BDE8104070B500F064FA64FBBE3EDE
:102880000000E0FF491058BFC1F140415B1058BF44
:10289000C3F140438B42EFF3008070472DE9C04104
:1028A00030B4DFF8A4C23CEA111418BF3CEA131498
:1028B00000F0ED801CEA111481EA030544EAD574A6
:1028C00018BF1CEA131500F0C880A4EB050404F13E
:1028D0007F7404F500344FF0004545EAC12145EA14
:1028E000C32341EA505143EA52534FEAC0204FEA12
:1028F000C222994208BF904200F09D804FEA1365C2
:102900000FF24416765D4FEA134506FB05F7C7F153
:10291000807706FB07F74FEAD737A7FB03687642B5
:10292000A7FB06CEC8F5803838BFA8F1010807FB21
:1029300008E6A6FB028C4FF0000EE6FB03CEDCF1AE
:10294000000CCEF1004E38BFAEF1010EA6FB0C58C4
:102950004FF00007E6FB0E87A1FB08C6A0FB07CEE1
:1029600016EB0E064FF0000545F10005E1FB07658B
:1029700015F1E04E7EBFA4F580345FEA46066D4156
:1029800016F1800745F100054FEA172747EA05676A
:102990004FEA15254FEA0666A6F1DE46B6F1805FDE
:1029A00020D9384605EBC47124F0010C01EB0C1161
:1029B000BCF1FE6F02D8F0BCBDE8008124425CBFD0
:1029C00001F5801E9EEAC47F02D4F0BCBDE8008100
:1029D000244200F13980A1F1C041F0BCBDE80041C2
:1029E00000F0FEB94FEAD02040EA41504FEAD12131
:1029F0004FEAD22242EA43524FEAD323A7FB028690
:102A000007FB036605FB02661EEA0E0F58BFA6EB26
:102A10000056B6EB00564FEA520E4EEAC37E18EB54
:102A20000E0E56EB530EBCD518EB02085E417F1C10
:102A300055F10005B5E74FF480154FF000074FF052
:102A400000064FF00008ACE701F1C04101F0004181
:102A50004FF00000F0BCBDE800810CEA131511EA4C
:102A60000C1F00D00CE013EA0C1F00F026804FF082
:102A7000000081EA030101F00041F0BCBDE80081E3
:102A8000F0BCBDE8004181EA030100F0A9B9F0BC47
:102A9000BDE8004170B500F055F900BF097EFC3E6D
:102AA00000F007B84FF0000081EA030101F0004197
:102AB000704781EA030100F093B9F0BCBDE8004122
:102AC00022494FF000007047FFFDFBF9F7F5F4F2E3
:102AD000F0EEEDEBE9E8E6E4E3E1E0DEDDDBDAD8B9
:102AE000D7D5D4D3D1D0CFCDCCCBCAC8C7C6C5C417
:102AF000C2C1C0BFBEBDBCBBBAB9B8B7B6B5B4B32E
:102B0000B2B1B0AFAEADACABAAA9A8A8A7A6A5A418
:102B1000A3A3A2A1A09F9F9E9D9C9C9B9A999998DC
:102B20009797969595949393929191908F8F8E8E7F
:102B30008D8C8C8B8B8A898988888787868585840C
:102B400084838382828181800000FF070000F87FF8
:102B500051EA030C17D41CF5801F58BFBCF5801F29
:102B600000F10680994218BF704708BF9042704735
:102B700007D711F5801F58BF13F5801F19D499424C
:102B80007047894270471CF5801F08D5BCF5801F2F
:102B9000F7D58B4218BF704708BF824270474FF489
:102BA000001C1CEB410F38BF1CEB430F01D28B42C2
:102BB000704770B500F0C6F8922449004FF00051FC
:102BC0004FF08053FFF75EBE4FEA41034FEA535385
:102BD000A3F58063D3F11E03C8BFD3F1210C0CDD34
:102BE0004FF0004242EAC12242EA505232FA03FC5C
:102BF0008CEAE17CACEBE1707047102BC4BF002085
:102C0000704703F5787CBCF1FF3F04D06FF00042C1
:102C100082EA2100704770B500F094F84992248050
:102C200000207047F2E710F0004248BF4042B0FA7F
:102C300080F310FA03F10AD0C3F11D0303F580639A
:102C400002EB03524FEA415002EBD12170474FF0A3
:102C50000000704751EA030C17D41CF5801F58BFC1
:102C6000BCF5801F00F10680994218BF704708BF6D
:102C70009042704707D711F5801F58BF13F5801F8A
:102C800019D499427047894270471CF5801F08D5B6
:102C9000BCF5801FF7D58B4218BF704708BF824232
:102CA00070474FF4001C1CEB410F38BF1CEB430F67
:102CB00001D28B42704770B500F044F8922449006D
:102CC0004FF080514FF00053FFF7DCBD51EA030C89
:102CD00017D41CF5801F58BFBCF5801F00F106807B
:102CE000994218BF704708BF9042704707D711F547
:102CF000801F58BF13F5801F19D49942704789422D
:102D000070471CF5801F08D5BCF5801FF7D58B4296
:102D100018BF704708BF824270474FF4001C1CEB7D
:102D2000410F38BF1CEB430F01D28B42704770B587
:102D300000F008F8922449004FF000514FF0805302
:102D4000FFF7A0BD0EF1020E2EF0030E5EF8046B2D
:102D5000364205D4012A43EB030515F5001F12D8AE
:102D6000012841EB010C1CF5001F0CD80ED14FEAD5
:102D7000D17C0CEB4C0C0CF1020C15F5001F08BFBC
:102D80004CEBD37C04E04FF0080C01E04FEAD37C1D
:102D90000CEB4C0526FA05F606F00706B6F1040C16
:102DA00006D20EEB860CBDE870404CF0010C60477B
:102DB000DFE80CF0090B02024FF00041A1F5002101
:102DC0004FF0000070BD19461046012851EB010478
:102DD00018BFD4F5001484BF002001F0004170BD7D
:102DE0000808A0F500114FEA3101704753EA010CC1
:102DF00017D41CF5801F58BFBCF5801F00F106805A
:102E00008B4218BF704708BF8242704707D713F53F
:102E1000801F58BF11F5801F19D48B4270479B4209
:102E200070471CF5801F08D5BCF5801FF7D5994267
:102E300018BF704708BF904270474FF4001C1CEB4E
:102E4000430F38BF1CEB410F01D2994270470FB4BA
:102E50000CBC03BCFFF76BBF5FEA410C5FEA5C5C34
:102E6000ACF580635B1C39D4D3F1340240F3458068
:102E7000B2F1200314DA4FF0010C0CFA02FCACF1B1
:102E80000103034020EA0300B3EB5C0208BF10EA31
:102E90000C0F98BF704710EB0C0041F10001704718
:102EA0000AD0C3F1200201FA02FC01284CF1000013
:102EB00021FA03F101FA03F14FF0010C0CFA03FCC3
:102EC000ACF1010321EA0301B0F1004F08BF11EAA0
:102ED0000C0F4FF0000088BF61447047B3F1FF3F13
:102EE00028BF50EAC12C01F000414FF0000084BF20
:102EF00041F07C5141F470017047B3F5806FB8BF69
:102F0000704770B5FFF71EFF40DBB6BE10B591EA03
:102F1000030F81F000413FF515AC83F0004300F052
:102F200009B8000010B591EA030F48BF83F00043D1
:102F30003FF508AC841A71EB030C07D28CF0004CFF
:102F4000121943EB0C03001B61EB0C014FEA115407
:102F5000A4EB135CDFF8A4E11EEA430F18BF9EEA5E
:102F6000445F00F0B48021EA045123EA6E03524228
:102F7000C3EB6E0338BF5B1EDCF1200E25D322FAB3
:102F80000CFE10EB0E0043FA0CFE41EB0E01CCF1EF
:102F9000200E03FA0EFE10EB0E00CCF1200E51F1C4
:102FA000000129D401EB045112FA0EF2BDE81040E1
:102FB00058BF7047401C1CBFB2F1004F704700283B
:102FC0000CBF491C20F00100704712EB020E43EBCE
:102FD000030218BF4FF0010E4EEA4202ACF1200C82
:102FE000DCF11E0E56D943FA0CFE10EB0E00CCF1AC
:102FF0001E0E51F1FF31D5D50EF1010E12FA0EFE63
:10300000404141EB010101EB445C5FEA5C5C10D99B
:1030100001EB045110EBDE7038BFBEF1004FBDE88C
:10302000104018BF704700280CBF491C20F0010059
:10303000704734D24FEAD42C24F4006411F5001107
:103040001BD0B1FA81F20B3AA41AA41ED2F12003CC
:10305000914030FA03F31943904001EBCC7101EB3E
:103060000451002CBDE81040A8BF704701F1C041D9
:1030700001F000414FF000007047B0FA80F310FA01
:1030800003F102D1BDE810407047E41A173C48052F
:10309000C90AE2E701EB0451BDE81040704749104E
:1030A0004FEA300001EB0451BDE8104002E04FF060
:1030B000000170474A0008BF0042F8D0B2F5001F77
:1030C00028BF704701F000414FF0000070479EEAB2
:1030D000445F07D011EA5E0FBDE8104004BF002135
:1030E00000207047BDE8104070B5FFF72BFE00BF11
:1030F00040DFF63E104683F0004170470000E0FFDD
:1031000043004FEAD30C4FEA3C0C43401FBF40073B
:103110000CF1605113F0FE4F70471CF0006F03D1AB
:103120000CF00041002070470CF0004343EA50705F
:1031300040EACC0010B500F0E4FA00BF00000092B5
:103140004FEA0001FFF74CBE4FF00041A1F500210E
:103150004FF000007047000090EA010F48BF81F077
:10316000004100F15083421A3CBF801A89184FEA8F
:10317000D052A2EBD1534FF07F4C1CEA410F18BF45
:103180009CEA026F00F03B804FF0004C4CEA0020BC
:103190004CEA012121FA03FC10EB0C0C1ED202F1C7
:1031A000FF325FEA1C2040EBC25038BF70471CF072
:1031B0007F0F4FEA400C18BFBCF17F4F38BF7047FC
:1031C000C3F12003994008BF20F00100BCF17F4FFC
:1031D00038BF7047A0F1C04000F0D9BA4FEA3C00B8
:1031E000000A40EBC25028BF1CF0FF0F4FEA400C12
:1031F000E6D018BFBCF17F4F38BF7047EAE79CEAC2
:10320000026F05D010EA5C0F08BF00F00040704765
:1032100010B500F076FA00BF64FBBE3E10B5FFF7B4
:1032200097FC0CBF0120002010BD10B5FFF790FCEB
:1032300014BF0120002010BD10B5FFF70BFD8CBF9F
:103240000120002010BD10B5FFF704FD2CBF0120A8
:10325000002010BD10B5FFF739FD94BF01200020FC
:1032600010BD10B5FFF732FD34BF0120002010BDA6
:1032700010B500F0F5F80CBF0120002010BD10B50E
:1032800000F0EEF814BF0120002010BD10B500F0D2
:103290004FF98CBF0120002010BD10B500F048F997
:1032A0002CBF0120002010BD10B500F075F994BFAF
:1032B0000120002010BD10B500F06EF934BF0120D0
:1032C000002010BD401058BFC0F14040491058BF09
:1032D000C1F140418142EFF3008070474FF47F0C11
:1032E0001CEAD0121EBF1CEAD11392EA0C0F93EA1B
:1032F0000C0F00F0858090EA010F48BF42F4807205
:1033000040F4000C41F400002CF07F4120F07F409D
:1033100000B5A2EB030281420FF2081CACEB504E49
:103320009EF800E0C0F100004FEA4E0E00FB0EFCDC
:1033300038BF49004FEA2C1C0CFB0EF34FEACE1E9F
:103340000EEB635E4FEA112C0EFB0CFC4FEAC12121
:103350004FEA1C5300FB031102F5FA024FEA112C4D
:103360000EFB0CFC4FEA01314FEADC4C00FB0C1168
:1033700042EB2242C14228BF09184CEB03335DF8EF
:1033800004EB10EB410143EBC250B2F57C0F38BFA8
:10339000704729D512F0F00F1CBF00F1C04000F0BB
:1033A00000407047008182838485868788898B8C62
:1033B0008D8E8F919293959697999A9C9D9FA0A29E
:1033C000A3A5A7A8AAACAEB0B2B3B5B7B9BCBEC0EE
:1033D000C2C5C7C9CCCED1D4D7D9DCDFE2E6E9EC8F
:1033E000F0F3F7FAFE0000004FEA400C0CF1807C8D
:1033F000BCF17E4F28BF7047B0F1C04000F0C7B9A4
:103400000CEAD11390EA010F48BF42F48072624582
:1034100038BF634507D213F47F0F16D080EA01004E
:1034200000F00040704710B500F06BF9097EFC3EDB
:1034300000F005B880EA010000F00040704780EA23
:10344000010000F0004000F0A2B912F47F0F04BFA9
:103450000248704780EA010000F099B90000C07F7F
:1034600050EA010C00F113801CF5000F58BFBCF5A9
:10347000000F01D48842704707D710F5000F58BFDE
:1034800011F5000F15D488427047894270471CF52A
:10349000000F04D5BCF5000FF7D5814270474FF0FF
:1034A000807C1CEB400F38BF1CEB410F01D28142E6
:1034B000704710B500F025F9922449004FF00050F4
:1034C0004FF08051FFF7FEBE41000B0ED3F19E027C
:1034D00008D950F400034FEA032323FA02F048BF4F
:1034E0004042704710B500F00CF900BF49922480AB
:1034F000002070476FF0004282EA20007047000011
:1035000010F0004148BF4042B0FA80F310FA03F2D5
:10351000C3F19D030BD051EAC35101EB12205306B6
:1035200038BF704700F1010008BF20F0010070476C
:1035300050EA010C00F113801CF5000F58BFBCF5D8
:10354000000F01D48842704707D710F5000F58BF0D
:1035500011F5000F15D488427047894270471CF559
:10356000000F04D5BCF5000FF7D5814270474FF02E
:10357000807C1CEB400F38BF1CEB410F01D2814215
:10358000704710B500F0BDF8922449004FF080500C
:103590004FF00051FFF796BE50EA010C00F1138086
:1035A0001CF5000F58BFBCF5000F01D488427047CE
:1035B00007D710F5000F58BF11F5000F15D488423A
:1035C0007047894270471CF5000F04D5BCF5000F09
:1035D000F7D5814270474FF0807C1CEB400F38BF1D
:1035E0001CEB410F01D28142704710B500F089F801
:1035F000922449004FF000504FF08051FFF762BE17
:103600004FF47F0C1CEAD0121EBF1CEAD11392EAC1
:103610000C0F93EA0C0F00F0478090EA010F48BFAF
:1036200042F480724FF0004C4CEA00204CEA012139
:1036300002EB0302A0FB0113A2F50002002918BF50
:1036400043F001035B0028BF4FEA330342EB224201
:103650005FEA132C4CEBC2502EBFBCEB436FB2F5AC
:103660007C0F70474FEA036CBCF1004F08BF20F09D
:103670000100B2F57C0F38BF70470BD582F0FF0216
:1036800012F5803FC8BF704700F1C040D8BF00F0BE
:103690000040704700F5000C5FEA4C0C48BF7047D3
:1036A000B0F1C04000F073B80CEAD11390EA010FFA
:1036B00048BF42F48072624538BF634504D280EA55
:1036C000010000F00040704710B500F01AF800BF8C
:1036D0008900013E00F007B800F009B85FEA410C2C
:1036E0005FEA1C6C08D080EA010000F050B85FEA85
:1036F000400C5FEA1C6CF6D14FF00040A0F5800052
:1037000070470EF1020E2EF0030E5EF8044B2442B9
:1037100004D44FEA4102B2F17F4F11D84FEA40037F
:10372000B3F17F4F0CD80ED14FEAD07C0CEB4C0C90
:103730000CF1020CB2F17F4F08BF4CEBD17C04E0DE
:103740004FF0080C01E04FEAD17C0CEB4C0324FA5B
:1037500003F404F00704B4F1040C06D20EEB840C5D
:10376000BDE810404CF0010C6047DFE80CF00708A2
:1037700002024FF00040A0F5800010BD0846420054
:1037800018BFD2F1807288BF00F0004010BDFF2149
:1037900041EAD050C00570475FEA400C5FEA1C6CFC
:1037A000BCF17F0314D4D3F1170240F31C804FF017
:1037B000010C0CFA02FCACF10103034020EA030007
:1037C000B3EB5C0208BF10EA0C0F88BF604470477F
:1037D000B3F1FF3F28BF5FEA002C00F0004088BF34
:1037E00040F07E507047BCF1FF0FB8BF704710B576
:1037F000FFF787FF40DBB6BE90EA010F48BF81F0BC
:1038000000413FF5B0AC421A04D882F00042A0EB70
:10381000020011444FEAD052A2EBD1534FF07F4C3B
:103820001CEA410F18BF9CEA026F4AD04FF0004CCF
:103830004CEA00204CEA012121FA03FCB0EB0C0C0D
:103840000FD412F0FE0F36D05FEA4C001DD50012E7
:1038500040EBC25038BF70471CF03F0F18BF704795
:103860000BE05FEA1C20A2F1010240EBC25038BF1E
:1038700070471CF07F0F18BF7047C3F120039940B9
:1038800014BF401E20F0010070474FEA1223800849
:1038900008BF7047B0FA80FCA2EB0C02CCF1280CF8
:1038A00060FA0CF093EA122F04BF00EBC25070478D
:1038B0004FEAC3707047130A5FEADC1008BF704715
:1038C000F6E79CEA026F04D010EA5C0F08BF002004
:1038D000704710B5FFF715FF40DFF63E81F000405E
:1038E000704700000000000000000102030406070A
:1038F0000809010202030405060708090A0B0C0D5A
:103900000E0F10100008000C000400060002000357
:1039100000010009483A00080000002030000000C3
:1039200028010008783A00083000002058070000FD
:10393000440100081001000043000000F8FFFFFFF1
:1039400000404040404040404040414141414140B2
:103950004040404040404040404040404040404067
:1039600040050202020202020202020202020202F6
:1039700002202020202020202020200202020202FB
:103980000202909090909090101010101010101053
:10399000101010101010101010101010020202025F
:1039A00002028888888888880808080808080808A3
:1039B000080808080808080808080808020202029F
:1039C00040000000000000000000000000000000B7
:1039D00000000000000000000000000000000000E7
:1039E00000000000000000000000000000000000D7
:1039F00000000000000000000000000000000000C7
:103A000000000000000000000000000000000000B6
:103A100000000000000000000000000000000000A6
:103A20000000000000000000000000000000000096
:103A30000000000000000000000000000000000086
:103A40000000000000000000060000000000B4427A
:103A50000000B4420000F041000034420000704217
:103A60000000B4420000F0420000344301000000B6
:083A7000100000000024F40026
:04000005080000ED02
:00000001FF
